:08000000803102288731EA2F4C
:100C0200FE0012001E00FE0B022E00344034793426
:100C12002434303419341234023478340034183421
:100C2200BF348634DB34CF34E634ED34FD348734DC
:100C3200FF34E73421008F0123008F0121000D10C2
:100C42008D100D158D1523000D108D100D118D11A8
:100C520020000D1D2D2E2E2E782E8D19312E322E86
:100C6200782EF001F10122000D148D1072082A3E37
:100C72008600870101088F000230F8004530F70036
:100C8200AA30890B422EF70B422EF80B422E22007D
:100C92000D108D1474082A3E8600870101088F000A
:100CA2000230F8004530F700AA30890B562EF70BB8
:100CB200562EF80B562E0130F4070030F53D093060
:100CC20074067504031D662E672E6D2E0130F20721
:100CD2000030F33DF401F5010A3072067304031D7E
:100CE200732E742E782EF201F301F401F501200027
:100CF2000D197C2E7D2ECD2E8D1D802E812ECD2E7A
:100D02000130F0000030F10022000D148D10720845
:100D12002A3E8600870101088F000230F800453024
:100D2200F700AA30890B932EF70B932EF80B932E14
:100D320022000D108D1474082A3E860087010108D6
:100D42008F000230F8004530F700AA30890BA72E39
:100D5200F70BA72EF80BA72EFF30F407FF30F53D57
:100D620074087504031DB62EB72EBF2EFF30F2078E
:100D7200FF30F33D0930F4000030F50072087304CF
:100D8200031DC42EC52ECD2E0930F2000030F30013
:100D92000930F4000030F50020000D1DD12ED22EB6
:100DA200022F8D1DD52ED62E022F0230F0000030DC
:100DB200F10022000D148D1072082A3E8600870170
:100DC20001088F000230F8004530F700AA30890B85
:100DD200E82EF70BE82EF80BE82E22008D140D10EA
:100DE20074082A3E8600870101088F000230F8004D
:100DF2004530F700AA30890BFC2EF70BFC2EF80BBE
:100E0200FC2E20000D19062F072F292E8D190A2FCF
:100E12000B2F292E70087104031D102F112F632F21
:100E220022008D100D1472082A3E860087010108E7
:100E32008F000230F8004530F700AA30890B1F2FCF
:100E4200F70B1F2FF80B1F2F22008D140D107408A3
:100E52002A3E8600870101088F000230F8004530E3
:100E6200F700AA30890B332FF70B332FF80B332FF0
:100E72007408023EF4000030753DF5007508803AB2
:100E8200F70080307702031D482F0A307402031CDA
:100E92004B2F4C2F522F0130F2070030F33DF4015B
:100EA200F5017308803AF70080307702031D5B2F4B
:100EB2000A307202031C5E2F5F2F632FF201F301CF
:100EC200F401F50170037104031D682F692FB82F17
:100ED20022008D100D1472082A3E86008701010837
:100EE2008F000230F8004530F700AA30890B772FC7
:100EF200F70B772FF80B772F22008D140D10740843
:100F02002A3E8600870101088F000230F800453032
:100F1200F700AA30890B8B2FF70B8B2FF80B8B2F37
:100F22007408FE3EF400FF30753DF5007508803A06
:100F3200F70080307702031DA02F013074020318DE
:100F4200A32FA42FAC2FFF30F207FF30F33D09305F
:100F5200F4000030F500F31FAF2FB02FB82F093087
:100F6200F2000030F3000930F4000030F5000230E6
:100F720070067104031DBE2FBF2F292E22008D1073
:100F82000D1472082A3E8600870101088F00023084
:100F9200F8004530F700AA30890BCD2FF70BCD2F83
:100FA200F80BCD2F22008D140D1074082A3E8600F6
:100FB200870101088F000230F8004530F700AA309F
:100FC200890BE12FF70BE12FF80BE12F292E80314E
:100FD20002280730840086308500203086000030E9
:100FE20087001430863101268731F001F101F201C8
:0E0FF200F301F401F501F601200086311B2EFB
:020000040001F9
:04000E00E23FFF3E90
:00000001FF
