:08000000803102288731FD2F39
:100F540021008F01F201F3017308803AF000803020
:100F64007002031DB72F08307202031CBA2FBB2F67
:100F7400BC2FD72F0130F000720AC12FF035890B36
:100F8400C02F7008FF3E20008F000330F1008A302C
:100F9400F0005630890BCC2FF00BCC2FF10BCC2F5B
:100FA4000130F2070030F33DAE2F0630F40000307C
:100FB400F500F51FDE2FDF2FE02FAC2F0130F000FE
:100FC400740AE52FF035890BE42F7008FF3E2000EA
:100FD4008F000330F1008A30F0005630890BF02F77
:100FE400F00BF02FF10BF02FFF30F407FF30F53D3D
:0C0FF400DB2F8031022820008731AA2F5B
:020000040001F9
:04000E00E23FFF3E90
:00000001FF
