:08000000803102288731FD2F39
:100F2A0023008D010C3021008D0020000D199E2F09
:100F3A009F2FB22F8D19A22FA32FB22F22000D108F
:100F4A008D100D30F100AF30F000B630890BAB2FA9
:100F5A00F00BAB2FF10BAB2F003220000D1DB62F7B
:100F6A00B72FCA2F8D19BA2FBB2FCA2F22000D10E7
:100F7A008D140D30F100AF30F000B630890BC32F5D
:100F8A00F00BC32FF10BC32F003220000D19CE2F07
:100F9A00CF2FE22F8D1DD22FD32FE22F22000D1437
:100FAA008D100D30F100AF30F000B630890BDB2F19
:100FBA00F00BDB2FF10BDB2F003220000D1DE62F8B
:100FCA00E72F9A2F8D1DEA2FEB2F9A2F22000D144F
:100FDA000D140D30F100AF30F000B630890BF32F4D
:100FEA00F00BF32FF10BF32F00329A2F80310228E6
:0A0FFA0020008731952FF4340134F4
:020000040001F9
:04000E00E23FFF3E90
:00000001FF
