:08000000803102288731FD2F39
:100D540021008F018D018E018731982786310D3056
:100D6400F300AF30F200B630890BB62EF20BB62E7C
:100D7400F30BB62E00328631DE2686310D30F300B9
:100D8400AF30F200B630890BC52EF20BC52EF30B33
:100D9400C52E00328731352786310D30F300AF3050
:100DA400F200B630890BD42EF20BD42EF30BD42ED2
:100DB4000032AE2E80310228013020008F00013035
:100DC4008E008D018230F000DE30890BE72EF00BAF
:100DD400E72E023020008D000830F1009D30F00035
:100DE4000630890BF32EF00BF32EF10BF32E2000BB
:100DF4008D018230F000DE30890BFE2EF00BFE2ECA
:100E0400043020008D000D30F100AF30F000B6301A
:100E1400890B0A2FF00B0A2FF10B0A2F0032200046
:100E24008D018230F000DE30890B162FF00B162F67
:100E3400023020008D000830F1009D30F0000630B3
:100E4400890B222FF00B222FF10B222F20008D0172
:100E54008230F000DE30890B2D2FF00B2D2F013066
:100E640020008D000800013020008F0001308D002B
:100E74000830F1009D30F0000630890B3F2FF00B55
:100E84003F2FF10B3F2F20008E018230F000DE3027
:100E9400890B4A2FF00B4A2F023020008E000830B5
:100EA400F1009D30F0000630890B562FF00B562FC1
:100EB400F10B562F20008E018230F000DE30890BBA
:100EC400612FF00B612F043020008E000D30F100F3
:100ED400AF30F000B630890B6D2FF00B6D2FF10B96
:100EE4006D2F003220008E018230F000DE30890B3D
:100EF400792FF00B792F023020008E000830F1009A
:100F04009D30F0000630890B852FF00B852FF10BF7
:100F1400852F20008E018230F000DE30890B902F67
:100F2400F00B902F013020008E00080001302000CB
:100F34008F0001308D0001308E000830F1009D30AB
:100F4400F0000630890BA42FF00BA42FF10BA42F73
:100F540020008F018230F000DE30890BAF2FF00BC0
:100F6400AF2F023020008F000830F1009D30F000D8
:100F74000630890BBB2FF00BBB2FF10BBB2F2000CE
:100F84008F018230F000DE30890BC62FF00BC62FA4
:100F9400043020008F000D30F100AF30F000B63087
:100FA400890BD22FF00BD22FF10BD22F003220005D
:100FB4008F018230F000DE30890BDE2FF00BDE2F44
:100FC400023020008F000830F1009D30F000063020
:100FD400890BEA2FF00BEA2FF10BEA2F20008F0187
:100FE4008230F000DE30890BF52FF00BF52F013045
:0C0FF40020008F00080020008631AA2E8B
:020000040001F9
:04000E00E23FFF3E90
:00000001FF
