:08000000803102288731E52F51
:100EE800FE0012001E00FE0B752F0034BF3486343E
:100EF800DB34CF34E634ED34FD348734FF34E73463
:100F08004034793424343034193412340234783487
:100F180000341834F03021008E0020008E012100AA
:100F28008F0120008F0120008E1D9B2F9C2FA12F49
:100F380022000F108F100F11972F0E1CA42FA52F12
:100F4800AF2F8E18A82FA92FAF2F0E19AC2FAD2FAA
:100F5800AF2F22000F1420000E18B32FB42FB62F76
:100F680022000F1020000E18BA2FBB2FC52F8E1C81
:100F7800BE2FBF2FC52F0E19C22FC32FC52F22007A
:100F88008F1420008E18C92FCA2FCC2F22008F1043
:100F980020000E18D02FD12FDB2F8E18D42FD52F4D
:100FA800DB2F0E1DD82FD92FDB2F22000F15200085
:100FB8000E19DF2FE02F972F22000F11972F803166
:100FC80002287A308400873085007030860000302F
:100FD80087000A308731742787318430840087304E
:100FE800850020308600003087000A30873174275A
:080FF8008731200087318E2FA4
:020000040001F9
:04000E00E23FFF3E90
:00000001FF
