:08000000803102288731FD2F39
:100E4C0021008F01013020008F000330F1008A3027
:100E5C00F0005630890B302FF00B302FF10B302F68
:100E6C00033020008F000330F1008A30F000563040
:100E7C00890B3E2FF00B3E2FF10B3E2F073020003D
:100E8C008F000330F1008A30F0005630890B4C2F64
:100E9C00F00B4C2FF10B4C2F0F3020008F00033038
:100EAC00F1008A30F0005630890B5A2FF00B5A2F74
:100EBC00F10B5A2F1F3020008F000330F1008A30C5
:100ECC00F0005630890B682FF00B682FF10B682F50
:100EDC003F3020008F000330F1008A30F000563094
:100EEC00890B762FF00B762FF10B762F7F302000AD
:100EFC008F000330F1008A30F0005630890B842FBC
:100F0C00F00B842FF10B842FFF3020008F00033067
:100F1C00F1008A30F0005630890B922FF00B922F93
:100F2C00F10B922F7F3020008F000330F1008A30BC
:100F3C00F0005630890BA02FF00BA02FF10BA02F37
:100F4C003F3020008F000330F1008A30F000563023
:100F5C00890BAE2FF00BAE2FF10BAE2F1F302000F4
:100F6C008F000330F1008A30F0005630890BBC2F13
:100F7C00F00BBC2FF10BBC2F0F3020008F00033077
:100F8C00F1008A30F0005630890BCA2FF00BCA2FB3
:100F9C00F10BCA2F073020008F000330F1008A308C
:100FAC00F0005630890BD82FF00BD82FF10BD82F1F
:100FBC00033020008F000330F1008A30F0005630EF
:100FCC00890BE62FF00BE62FF10BE62F01302000FA
:100FDC008F000330F1008A30F0005630890BF42F6B
:100FEC00F00BF42FF10BF42F282F80310228200066
:040FFC008731262FE4
:020000040001F9
:04000E00E23FFF3E90
:00000001FF
