:08000000803102288731E52F51
:100F3200FE0012001E00FE0B9A2F0034BF348634CE
:100F4200DB34CF34E634ED34FD348734FF34E73418
:100F5200403479342434303419341234023478343D
:100F620000341834033021008E0020008E0120004E
:100F72000E1CBC2FBD2FCD2F0E18C02FC12FBD2F81
:100F8200031022000E1D03140318C82FCB2F2200BA
:100F92000E15CD2F22000E1120008E1CD12FD22F24
:100FA200B82F8E18D52FD62FD22F031022000E1D48
:100FB20003140318DD2FE02F22000E15E22F22006A
:100FC2000E11B82F803102289F30840087308500AF
:100FD20070308600003087000A30873199278731C8
:100FE200A9308400873085002030860000308700D9
:0E0FF2000A3087319927873120008731B32FCD
:020000040001F9
:04000E00E23FFF3E90
:00000001FF
